:020000040800F2
:10080000101F0020D1090008D9090008DB090008E1
:10081000DD090008DF090008E10900080000000008
:10082000000000000000000000000000E3090008D4
:10083000E509000800000000E7090008CD2B0008CA
:10084000EB090008EB090008EB090008EB090008B8
:10085000EB090008EB090008EB090008EB090008A8
:10086000EB090008EB090008EB090008EB09000898
:10087000EB090008EB090008EB090008EB09000888
:10088000EB090008EB090008EB090008EB09000878
:10089000EB090008EB090008EB090008EB09000868
:1008A000EB090008EB090008EB090008EB09000858
:1008B000EB090008EB090008EB090008EB09000848
:1008C000EB090008EB090008EB090008EB09000838
:1008D000EB090008A12E0008EB090008EB0900084D
:1008E000FD100008EB090008EB090008EB090008FF
:1008F000EB09000800F002F800F05AF80AA090E8AE
:10090000000C82448344AAF10107DA4501D100F0CA
:100910004FF8AFF2090EBAE80F0013F0010F18BF3D
:10092000FB1A43F001031847A4310000C431000052
:100930000A444FF0000C10F8013B13F0070408BF05
:1009400010F8014B1D1108BF10F8015B641E05D0A3
:1009500010F8016B641E01F8016BF9D113F0080F58
:100960001EBF10F8014BAD1C0C1B09D16D1E58BFEA
:1009700001F801CBFAD505E014F8016B01F8016B21
:100980006D1EF9D59142D6D3704700000023002494
:1009900000250026103A28BF78C1FBD8520728BF8F
:1009A00030C148BF0B6070471FB51FBD10B510BDEB
:1009B00000F027FA1146FFF7F7FF02F0BDFE00F046
:1009C00045FA03B4FFF7F2FF03BC00F04DFA000054
:1009D0000948804709480047FEE7FEE7FEE7FEE7D3
:1009E000FEE7FEE7FEE7FEE7FEE7FEE7044805490F
:1009F000054A064B70470000192C0008F50800084E
:100A000010190020101F0020101B0020101B0020B8
:100A1000EFF3108072B6704780F31088704730BFD4
:100A200080F3088870474FF0010080F31388024874
:100A30000249016000BFFEE70CED00E00400FA058A
:100A400008B50146002000BF0CE00A5C02F0F0028D
:100A5000C0F10303CB5C03F00F031A430DF8002031
:100A6000421CD0B20328F0DD002004E01DF8002075
:100A70000A54421CD0B20328F8DD08BD03784B406D
:100A8000037043785340437083784B408370C3783E
:100A90005340C3707047F8B513460022072900DCA5
:100AA00001B9F8BD012B60D10578C1F10806012418
:100AB000B440641E2C408C404678C1F108070125E3
:100AC000BD406D1EC5F1FF053540C1F10806354139
:100AD0002C43E4B28DF800404578C1F108060124AA
:100AE000B440641E2C408C408678C1F10807012573
:100AF000BD406D1EC5F1FF053540C1F10806354109
:100B00002C43E4B28DF801408578C1F10806012438
:100B1000B440641E2C408C40C678C1F10807012502
:100B2000BD406D1EC5F1FF053540C1F108063541D8
:100B30002C43E4B28DF80240C578C1F108060124C7
:100B4000B440641E2C408C400678C1F10807012592
:100B5000BD406D1EC5F1FF053540C1F108063541A8
:100B60002C43E4B28DF8034053E0022B50D1C578FA
:100B700001248C40641E2C40C1F10805AC4006786D
:100B800001258D406D1EC5F1FF0535400D412C43FB
:100B9000E4B28DF80040057801248C40641E2C409E
:100BA000C1F10805AC40467801258D406D1EC5F1A8
:100BB000FF0535400D412C43E4B28DF801404578E6
:100BC00001248C40641E2C40C1F10805AC4086789D
:100BD00001258D406D1EC5F1FF0535400D412C43AB
:100BE000E4B28DF80240857801248C40641E2C40CC
:100BF000C1F10805AC40C67801258D406D1EC5F1D8
:100C0000FF0535400D412C43E4B28DF8034000E070
:100C100047E7002204E01DF802408454541CE2B26D
:100C2000032AF8DD00BF3CE710B504462046FFF775
:100C300007FF6C4802786C4801782046FFF72BFFCD
:100C40006A4802786A4801782046FFF717FF65482E
:100C50004278654841782046FFF71DFF2046FFF7A0
:100C6000EFFE62484278624841782046FFF706FF6F
:100C70002046FFF7E5FE5D4882785D488178204692
:100C8000FFF7FCFE57488278574881782046FFF7E7
:100C900002FF5648C2785648C1782046FFF7EEFE5C
:100CA0005048C2785048C1782046FFF7F4FE2046ED
:100CB000FFF7C6FE10BD30B50346002000BF07E0B9
:100CC0001C5C00F00305555D6C401C54441CE0B2F4
:100CD0008842F5DB30BD70B504460D4629462046F6
:100CE00000F092F908B9012070BD0020FCE770B552
:100CF00004460D46042229463E4802F02EFD28B93E
:100D000004223D49204602F039FD07E0042229462D
:100D1000204602F033FD2046FFF786FF70BD70B518
:100D200004460D4600262A462146A01D02F032FD4B
:100D300005F1080020700220607004222D49A01CDB
:100D400002F028FD2C4A2946A01DFFF7B4FF2078A9
:100D5000801E81B2204600F057F9064631122078F5
:100D6000801E21542078401E2654012070BDF8B505
:100D700004462178204600F047F908B10220F8BD6A
:100D800025786678022E1BD1A11C6846FFF7AFFFBD
:100D9000A5F10800C1B26A46A01DFFF78CFFA5F1BE
:100DA0000800C1B2A01DFFF796FF38B1A5F10802F7
:100DB000A11D204602F0EEFC0020E0E70120DEE766
:100DC0000320DCE710B5044604222146094802F05E
:100DD000D5FC04222146084802F0D0FC0648FFF763
:100DE00023FF10BDC03A0008BC3A0008C83A00080A
:100DF000C43A000860010020640100207047704779
:100E00007047754600F02CF8AE460500694653461B
:100E100020F00700854618B020B5FFF7E7FDBDE8D4
:100E200020404FF000064FF000074FF000084FF051
:100E3000000B21F00701AC46ACE8C009ACE8C009E2
:100E4000ACE8C009ACE8C0098D46704710B504464F
:100E5000AFF300802046BDE81040FFF7B2BD0000B0
:100E600000487047AC18002001491820ABBEFEE7CF
:100E7000260002007047000010B500F067FB006913
:100E800005490068884205D004480068BDE8104064
:100E900000F01ABE10BD0000A53CC35A9003000824
:100EA00070B500F053FB44694FF0006505E000F0B9
:100EB00059FA2168884204D01034D5F89003A04232
:100EC000F5D8103C074A1021204601F063F820684D
:100ED000A0F14901142901D8C0B270BD01495320C5
:100EE000086070BD7C18002070B50446204D28892C
:100EF00000280DD1082C00D3012401F0CBFF1D499F
:100F000031F81410B0FBF1F201FB1200801C2881B3
:100F10000221012000F0E0FA4FF4C872002480B1F1
:100F20002C81EC80A888401C80B2A880B0F57A7F24
:100F300005D9AC80104B0021032001F0AFFE00204A
:100F400070BD2889401E0004000C2881F7D1E88874
:100F5000401C80B2E880642805D9EC80064B002153
:100F6000032001F09BFE2C81AC80012070BD0000AD
:100F700040010020A03A0008612A000870B5002155
:100F8000D0F80B401E4DC1EBC10305EB43021668C0
:100F9000A6421CD10021C47B5618367AA64201D144
:100FA000002070BD491CC9B20529F5D3517B491CED
:100FB000C9B20524B1FBF4F604FB161151730822E3
:100FC000294402EB4302C07B8854012070BD491CB8
:100FD000C9B21429D7D30B4B1978491CC9B21422B2
:100FE000B1FBF2F402FB14111970C1EBC10105EB66
:100FF0004101C27B0A72D0F80B000860012070BD6D
:10100000A80500202400002070B500230024002241
:10101000074E08E0855C5D4036F81550EBB2634042
:101020002C0A521C92B28A42F4D344EA032070BDC7
:10103000EC37000810B50549054800F061FFBDE830
:1010400010400449044800F05BBF00007802002013
:10105000F806002098040020180F002006E0052163
:10106000491E89B20029FBD1401E80B20028F6D16A
:101070007047000070B500F06FF980B24FF48072D5
:101080004FF4C07354005D009600402811D08028B2
:101090000FD090420DD098420BD0A04209D0A84268
:1010A00007D0B04205D0124881690068081AC0F321
:1010B0008F20104998420DD006DC40280DD08028A2
:1010C0000FD0904211D105E0A04203D0A84201D038
:1010D000B0420AD10848086070BD0748303808603F
:1010E00070BD05481838086070BD0020086070BDEC
:1010F0008003000838010020883A000810B5044831
:1011000000F0F6FF03494FF48060086010BD000056
:10111000E80600201404014070B58B088C07240FEA
:10112000124D2E6846F001062E609D00104B2B4498
:101130009D680F26A640B5439D609D68A04005436D
:101140009D600C4B1C680120884004431C60D10743
:1011500004D0084B0C33196801431960910704D57A
:10116000044908310A6802430A6070BD2038024011
:101170000000014000040140F0B5C1B0064614462D
:10118000002E32D0FA2C30D8224601A802F0F6FA0E
:10119000A1B201A8FFF738FF0546FFF739FC074663
:1011A00006221349304602F07EFAF0B12A0A01A85D
:1011B000611C02554A1C4554D1B2FFF7B0FDA0B1E5
:1011C0009DF80420FA2A10D801A9304602F06BFAE3
:1011D00058B106220749304602F065FA28B1384670
:1011E000FFF71AFC012041B0F0BD0020FBE7000032
:1011F000EC390008F239000870B500F059FE1949C1
:1012000000204870887001224A71174DC1F80C51B6
:10121000164BC1F8083101F5887148708A704A711F
:10122000134AC1F80C21134CC1F8084101F588712B
:101230004870887002244C71C1F80C51C1F8083113
:1012400001F58871487088704C71C1F80C210A480A
:10125000C1F80801BDE8704005220021074B0220BB
:1012600001F01CBD68010020E9340008411D0008A0
:1012700051340008A51E0008FD1E000835100008A6
:1012800070B505464FF40056304600F079F8A8B91D
:101290000E4C206840F400702060206840F0080088
:1012A000206000202860304600F06AF8216821F0B4
:1012B00008012160216821F40071216008B100203B
:1012C00070BDBDE8704000F04FB80000043C024023
:1012D00000224021104602F088B838B504466A461C
:1012E0000121204600F0D0FE9DF80010491C00911D
:1012F0006A460121204602F045F838BD0122FF214F
:10130000014B002000F05FBD3601002010B50C46F7
:10131000002804D0012809D0022811D109E00220B8
:1013200001F0CEFF0B4801F0FFFC09E000F0C4FB28
:1013300006E02AB1134600210522084601F0AEFC62
:10134000002C06D0012C04D02046BDE81040FFF749
:10135000C4BF10BDC51A00080148008870470000CE
:101360004C00F81F0020704704480168890703D526
:10137000022101600120704700207047183C0240A4
:101380000A4900E0401E10B10A68D207FAD140B104
:10139000086810F4F85F06D04FF4F8500860012098
:1013A000704703207047002070470000183C02403F
:1013B0000948016889070ED50068C00705D00648AE
:1013C00006490830016006490160034805490C30B0
:1013D0000160054901607047043C0240EFCDAB89D4
:1013E00005040302BFAE9D8C161514132DE9F041C0
:1013F00005460C4616464FF440573846FFF7C0FFE7
:1014000038B108E001CE01C5241F3846FFF7B8FF08
:1014100008B9002CF6DC14B10020BDE8F0810120F1
:10142000FBE700000248016841F0020101607047DB
:10143000043C02402DE9F0470024254B03EB8023B8
:10144000244E37684FF0010808FA00F52F4202D108
:101450003068284330604FF0030902F0030531E0A3
:1014600008FA04F70F422CD0D3F800C0600009FA44
:1014700000F62CEA060C05FA00FA4AEA0C0AC3F850
:1014800000A0012D01D0022D15D1D3F808C02CEAFF
:10149000060CC2F3C10A0AFA00FA4AEA0C0AC3F8B7
:1014A00008A0B3F804C02CEA070CC2F38007A740D9
:1014B00047EA0C079F80DF68B743560986403E43E2
:1014C000DE60641C31FA04F0CAD1BDE8F087000088
:1014D000000002401C38024002460020034B03EB90
:1014E0008222128A0A4200D0012070470000024086
:1014F000024A02EB80204183704700000000024056
:10150000024A02EB80200183704700000000024085
:101510000C4902280AD0032088770220C87701F1FD
:1015200028000862103048621A3870470920087095
:10153000082048700448C1F802001030C1F80600C5
:1015400000487047C0060020080F002001480068CE
:10155000704700003801002070B50D461446FFF7B3
:101560009FFC20700120287070BD70B506460D46A6
:101570001446FFF7EBFF026900687379012B03D073
:10158000022B0FD00E2070BD0B2129709188218075
:101590000168C4F802109168C4F80610007AA072BD
:1015A000012070BD1E2070BD70B506460C46154664
:1015B000FFF7CCFF0169F07848B1B0884A688242F1
:1015C00005D0A0F57F42FF3A01D0122070BD002067
:1015D0002070888828802078801CC0B2207089689C
:1015E00029502078001D2070012070BD10B50B46D9
:1015F0000D4900780978884214D10C4C2078F128E4
:1016000005D0F2280CD000202070222010BD1146F9
:10161000184601F0B1FD08B1F2202070012010BD84
:10162000012010BD032010BD2D0000202C00002043
:1016300070B504460D46164600F036FA2379F02BB5
:1016400003D0F22B08D00E2070BD3246294620462A
:10165000BDE87040FFF789BF324629462046BDE805
:101660007040FFF7C3BF00002DE9F0410C4615465E
:10167000FFF76CFF026901684368002020704FF695
:10168000FF7028802078801CC0B22070134F16682D
:10169000BE4202D14FF0FF3200E092682A5020781B
:1016A000001DC0B220705A682A502078001DC0B2B8
:1016B000207051F8242B2A502078001D207004E05F
:1016C0002078431C23702A54491C0A78A2F1300068
:1016D0002A28F5D90120BDE8F0810000A53CC35AB5
:1016E00010B50446FFF732FF8168104A086890423F
:1016F00013D14868421C10D078B1B0F1443F0CD0EF
:10170000B0F1883F09D00A4A904206D08968C9439F
:10171000884202D1A04205D105E00648416EA142AF
:1017200001D0406E10BD002010BD00005A3CC3A582
:10173000424553540000F81F10B5044640210120D3
:10174000FFF7D6FE0220FFF789FC24B1802101209B
:10175000FFF7D6FE03E080210120FFF7C9FE02203B
:10176000FFF77CFC40210120FFF7CAFE0220FFF7B3
:1017700075FC4021BDE810400120FFF7B9BE10B54F
:101780003922C0210120FFF755FE80210120FFF7FB
:10179000B7FE4021BDE810400120FFF7B1BE70B593
:1017A00006460024202280210120FFF743FE002569
:1017B00040210120FFF79CFE0220FFF74FFC402153
:1017C0000120FFF79DFE0220FFF748FC6006040E93
:1017D00080210120FFF780FE08B1641CE4B20220E2
:1017E000FFF73CFC6D1CEDB2082DE1D34021012038
:1017F000FFF77EFE0220FFF731FC39228021012015
:10180000FFF718FE80210120FFF77AFE0220FFF784
:1018100025FC3046FFF790FF204670BD70B50546A9
:1018200040210120FFF764FE0220FFF717FC00248F
:10183000280604D580210120FFF762FE03E0802105
:101840000120FFF755FE6806050E0220FFF706FC93
:1018500040210120FFF754FE0220FFF7FFFB40214B
:101860000120FFF745FE0220FFF7F8FB641CE4B2FD
:10187000082CDDD3BDE8704000F031B810B58021F0
:101880000120FFF73DFE40210120FFF739FE022035
:10189000FFF7E4FB80210120FFF72AFE0220FFF77B
:1018A000DDFB4021BDE810400120FFF721BE10B54F
:1018B00080210120FFF71CFE0220FFF7CFFB402113
:1018C0000120FFF71DFE0220FFF7C8FB8021012049
:1018D000FFF716FEBDE810400220FFF7BFBB70B552
:1018E0000024202280210120FFF7A4FD0220FFF721
:1018F000B5FB40210120FFF703FE0220FFF7AEFBFE
:101900004FF4FA750EE0641CA4B2AC420AD9392235
:1019100080210120FFF78EFD80210120FFF7F0FDDF
:10192000002070BD80210120FFF7D6FD0028EAD1FC
:1019300040210120FFF7DCFD0220FFF78FFB392259
:1019400080210120FFF776FD80210120FFF7D8FDDF
:101950000220FFF783FB012070BD70B505460C46E1
:10196000FFF78CFF2846FFF759FF08B9641EF7D12F
:10197000FFF79DFF0CB1012070BD002070BD2DE967
:10198000F04107460E4615461C46FFF777FF3846DE
:10199000FFF744FFF0B1300AFFF740FFD0B1F0B2DB
:1019A000FFF73CFFB0B1FFF769FF47F00100FFF719
:1019B00035FF38B90EE00020FFF7F1FE05F8010B06
:1019C000641EE4B2012CF6D8641EE4B20120FFF7D5
:1019D000E6FE2870FFF76BFF14B10020BDE8F08130
:1019E0000120FBE72DE9F04107460E4615461C464F
:1019F000FFF744FF3846FFF711FF88B1300AFFF7C1
:101A00000DFF68B1F0B2FFF709FF38B908E015F82B
:101A1000010BFFF703FF18B1641EE4B2002CF6D1EE
:101A2000FFF745FF14B10020BDE8F0810120FBE77E
:101A30002DE9F04107460D4616461C46FFF71EFFEE
:101A40003846FFF7EBFE80B1280AFFF7E7FE60B1EA
:101A5000E8B2FFF7E3FE30B907E03046FFF7DEFEFD
:101A600018B1641EE4B2002CF7D1FFF720FF14B1C7
:101A70000020BDE8F0810120FBE70000084A45F2A4
:101A80005553136050609160580010604CF6CC4084
:101A900010600021034B4FF44872022001F0FEB8A1
:101AA00000300040A91A000802494AF6AA2008603E
:101AB0007047000000300040014801F035B90000D7
:101AC000A91A00087047000010B5044600680649CE
:101AD0000840B0F1005F06D12068FEF7A1FF606802
:101AE000BDE81040004710BD0000FE2FF0B50546D0
:101AF0000F4614461E46304600F018F8C6F10400A2
:101B000085400F20F04038402843000104F1E021D7
:101B100081F8000404F01F01012088406109890058
:101B200001F1E021C1F80001F0BD0000072181436F
:101B30000902054A10684FF6FF031840034B18438B
:101B400008431060704700000CED00E00000FA054B
:101B500010B50549054800F0D3F9BDE81040044927
:101B6000044800F0CDB9000068010020E80600201C
:101B700088030020080F00202DE9F843044688461A
:101B80000D266078DFF8F09000EB800009EB800014
:101B9000C56800270020009001F01EFA6178884295
:101BA00062D9A178286888424FD1207802280DD0C8
:101BB00004280BD0072809D0092807D005282CD0E5
:101BC0000B282AD00D2828D00C264DE0A86810B389
:101BD00060782A4901EBC000807998B1E278611CF5
:101BE000D21CA01C01F0D6FD84F80180A968601CFD
:101BF000884706460322A11C601C01F0CBFD022E83
:101C000002D031E009262FE02868CF2800D901262C
:101C1000E078009028E00A2626E0E86898B1E278AB
:101C2000611CD21CA01C01F0B5FD84F80180621D6E
:101C3000EB686946601C984706460322A11C601C9D
:101C400001F0A8FD10E00B260EE0607800EB8000AC
:101C500009EB8000006980477F1CFFB2B84203D9BE
:101C600055F8100FFF289CD99DF80000401CE0702B
:101C700026713046BDE8F883A83A000858010020D4
:101C800070B504460846FFF743FC05460120207066
:101C9000184E3068C4F801007068E060D4F806009F
:101CA0007168884202D0607901280CD9227DD5F86C
:101CB000020015322146FFF75FFA20B92978002289
:101CC0000220FFF723FBD4F80600716888420FD08A
:101CD000227DD5F8060015322146FFF74DFA00287F
:101CE00006D16978BDE8704000220220FFF70EBBE4
:101CF00070BD00008C18002070B5C0B00E461546AF
:101D000001AC01461022601C01F038FD0B49487AF5
:101D1000401C48728DF814000422314604F1110071
:101D200001F02CFDF27829460DF1190001F026FD95
:101D300001212046FFF7A4FF40B070BD8C180020A1
:101D4000F8B50E4610F8015C841D00F11B0104F18A
:101D5000110300911F46621C314600F069F801280A
:101D60001ED129463846FFF707FF0246032A17D03F
:101D7000607C02280DD005280BD0072801D00B2845
:101D800001D1012A05D0092801D00D2808D1012A46
:101D900006D000F007F8607429462046FFF770FF70
:101DA0000120F8BD801E0C280BD2DFE800F0060AE7
:101DB0000A080A060A060A080A08032070470620CD
:101DC00070470020704710B590B0144601228DF87E
:101DD00000208DF801008DF802108DF80340224696
:101DE000194601A801F0CAFC241D0021E2B26B468D
:101DF000084600F002F810B010BD10B586B00124FE
:101E00008DF80C404FF08834CDF80D400024ADF82B
:101E100011408DF804408DF805008DF806108DF8FE
:101E200007201A4601A902A8FFF766FF06B010BDF9
:101E300070B51446184D20682968884206D0174AA4
:101E4000904203D0491C01D0042070BD2046FFF70A
:101E500095F830B120791249012804D005280CD01A
:101E60000EE0082070BDD4F805006A68904201D0E9
:101E7000062070BD0020486007E0D4F8050008B1D6
:101E80000D2070BDD4F80B004860D4F80B00C4F8E6
:101E90000500012070BD00008C18002042455354FD
:101EA000240000200C39C9B2801D00F0B5BD00002F
:101EB00010B50E494FF480642246A1F1200001F0D4
:101EC00042FB0B492246A1F5826001F03CFB094927
:101ED0002246A1F1200001F036FB22460649BDE86A
:101EE0001040A1F5826001F02EBB00000807002021
:101EF000080B0020280F00202813002001F044B810
:101F000070B50C4600256178002902D0012922D144
:101F10000EE00146D4F80C21A01D904710F0FF0000
:101F2000207014D02571A078012811D00120E07014
:101F3000D4F8083122792178A01D984728B1E0789B
:101F4000401E10F0FF00E07005D00120607070BDF1
:101F50000248007AEBE7657070BD00008C18002025
:101F600070B505460C46FFF723FA4FF4807603E080
:101F7000A4F5807405F580752846FFF781F908B14E
:101F8000B442F5D8FFF74EFAB44201D8012070BD33
:101F9000002070BD8B0707D021F0030141F0040140
:101FA00002E008C808C2091F0029FAD101207047C1
:101FB00070B505460C461646E10700D0641CFFF7D5
:101FC000F7F9324621462846FFF710FA0446FFF794
:101FD00029FA204670BD000030B5274B196801F082
:101FE0000C01264C042928D0082928D00C2929D0F6
:101FF000191F0968C1F34231491C4FF400428A405D
:102000000260196801F0F00109091D4A525C01687B
:10201000D14041601A6802F4E062120A184D113D85
:10202000AA5C21FA02F282601A6802F46052D20AB3
:10203000AA5CD140C160046130BD0460E1E7114990
:102040000160DEE719680E4AC1F38341093A515C29
:102050001A68C2F38152521C1D68ED0305D4074D66
:102060006943B1FBF2F10160CBE7064D6943B1FB77
:10207000F2F10160C5E70000083802400024F400D6
:102080001100002000127A002DE9F04105460C46AF
:10209000174620E0B5F5004F03D247F69C70844206
:1020A00002D90020BDE8F08105F03F00C0F14006F4
:1020B000A64200D32646F3B2A9B23A46A020FFF7C3
:1020C0005EFC50B13544A41B37444FF0FF31A020D3
:1020D000FFF743FC08B1002CDCD134B100221146DB
:1020E0001046FFF713F90020DCE70120DAE70000D3
:1020F0002DE9F04F91B0834600253227A946424E84
:102100004FF4806A71E028466D1CEDB2052805D9B0
:10211000052000F0D1FA86F801906CE00021032040
:1021200000F060F980460021042000F05BF95FEACE
:10213000C87002D086F801905DE05FEAC86019D5EA
:10214000707810B9584601F0F1FA002400217F2080
:1021500000F048F90146584601F08AFA641CE4B2DE
:10216000322CF3D37078CD2802D986F8019042E062
:10217000323070705FEA887037D500214B2000F054
:1021800031F904460DF104080DE000217F2000F034
:1021900029F901467078B0FBF7F207FB120208F844
:1021A0000210401C70707078A042EED3322C02D81E
:1021B000584601F0BBFAB4FBF7F007FB104020B122
:1021C000B4FBF7F007FB104200E0322201A95846A9
:1021D00001F069FA584601F003FB86F8019020B936
:1021E000002203210220FFF791F851460020FFF75B
:1021F00073F9002887D07078002801D100F008F921
:1022000011B0BDE8F08F000040010020014901201D
:1022100088707047400100202DE9F04107460D46C7
:1022200000F052FA00F01EF92946BE2000F0DAF85C
:102230004FF480581BE0444603E0142001F07AF983
:10224000641E0021032000F0CDF8800601D4002C8C
:10225000F3D1002607E017F8011BFF2000F0C2F8B9
:102260006D1EEDB2761C322E01D2002DF3D1002D61
:10227000E1D10921872000F0B5F84FF4C87001F0D2
:1022800059F902E0B8F101080ED00021032000F056
:10229000A9F8400702D4B8F1000FF3D100F014FA06
:1022A000BDE8F04100F0B4B8042000F005FAF5E70D
:1022B0002D48016841F480410160016821F48041AA
:1022C0000160001D016841F00201016026480C30E8
:1022D000016841F4804101602448016821F07C419B
:1022E0000160016841F028410160001D018821F46E
:1022F00060410180001D016821F07C41016001689E
:1023000041F07C410160001D016821F07C410160C9
:10231000016841F0A8410160144824300168C1F30C
:10232000130101600168124A1143016011480188DC
:102330000180018841F400710180018841F48071BD
:102340000180018841F00401018001880180018839
:1023500041F00801018001880180018841F04001BD
:102360000180FF2000F008B8183802400004024045
:10237000000050550038004010B500214FF6FE73A4
:102380000E4A06E00C46491C89B29C4201D300204B
:1023900010BD1488A407F5D5084C241D208000200A
:1023A00006E00146401C80B2994201D3002010BDD6
:1023B0001188C907F5D02088C0B210BD0838004088
:1023C00000F007010648028822F0380202800288E5
:1023D00042EAC1010180018841F04001018070475B
:1023E0000038004070B506460D464FF48054214633
:1023F0000120FFF77DF83046FFF7BEFF2846FFF7C4
:10240000BBFF054621460120FFF77AF8284670BD3C
:1024100010B505218720FFF7E5FF02218E20FFF789
:10242000E1FF02218820FFF7DDFF00218820FFF770
:10243000D9FF13218520FFF7D5FF80218620FFF7E4
:10244000D1FF00210320FFF7CDFF00210420FFF77B
:10245000C9FF0348016841F48061016010BD0000BC
:102460000004014010B503218820FFF7BBFF0821BD
:102470008820FFF7B7FF0121BDE810408E20FFF74D
:10248000B1BF00000CB50022019200922D490868EE
:1024900040F4803008604FF4A043086800F4003036
:1024A00000900198401C0190009810B90198984242
:1024B000F3D10868800302D50120009000E000926B
:1024C000009801283CD12048026842F004020260D2
:1024D000026842F002020260026842F001020260F9
:1024E00018482430026842F080520260C214174833
:1024F00002604268D206FCD41248083002680260CA
:102500000268026002680260026822F47D020260D2
:10251000026842F4110202600A6842F080720A60A6
:102520000A689201FCD5016821F00301016001688D
:1025300041F0030101600168C1F381010329FAD16F
:102540000CBD000000380240003C0240007000401A
:1025500010B50446E078012801D00F2010BD207985
:102560004938152801D30E2010BDFEF799FC01460D
:102570002079814209D000F0A5FD40B10021054B32
:102580004FF44872084600F089FB012010BD12206C
:1025900010BD00001527000810B5184A0178127800
:1025A000914229D1164C2178F22905D0F32921D066
:1025B00000202070222010BD401D01794279514039
:1025C0004A404271514001718188006800F06AFD03
:1025D000012811D100F0B0FD70B1F3202070FFF799
:1025E0006BFA084B4FF448720121002000F056FBB3
:1025F000012010BD012010BD032010BD2D000020C2
:102600002C000020270A000810B50446FFF74CFAFA
:102610000D4920780978884214D10C490878F128AE
:1026200005D0F2280CD000200870222010BDE078E0
:10263000801EC1B2A088A21DBDE8104000F0C2BD3E
:10264000012010BD032010BD2D0000202C00002013
:1026500010B50446FFF728FA2179F12903D0F329B0
:1026600006D00E2010BD204600F0D8FDC0B210BD2F
:102670002046BDE81040FFF78FBF10B50446E07854
:10268000012801D1217961B178B100F0A5FC0146A2
:10269000207981420ED900F0D9FC207900F0ACFC01
:1026A00006E0022000F054FE02E0012000F050FE9F
:1026B000012010BD0E2010BD0146024A0220FEF787
:1026C00025BE00001527000810B51148016821F447
:1026D0008061016000218E20FFF784FE01218720A8
:1026E000FFF780FE00218520FFF77CFE0021862079
:1026F000FFF778FE00210320FFF774FE002104207D
:10270000FFF770FEBDE81040022000F005BF00009A
:102710000004014010B500F047F94FF4805101204A
:10272000FEF7EEFE40210020FEF7EAFE022000F058
:10273000F3FE40210020FEF7DBFE322000F0ECFE2D
:1027400000210320FFF74EFE00210420FFF74AFE80
:1027500080218720FFF746FE022000F0DDFE0021E9
:102760008720FFF73FFE00218520FFF73BFE002179
:102770008620FFF737FE00210320FFF733FE0021FC
:102780000420FFF72FFE79218920FFF72BFE062179
:102790008A20FFF727FEEA218B20FFF723FEEA219C
:1027A0008C20FFF71FFEFC218D20FFF71BFE002170
:1027B0008E20FFF717FE2B219C20FFF713FE4021F0
:1027C0009D20FFF70FFE0A219E20FFF70BFE03213D
:1027D0009F20FFF707FE6821A020FFF703FE0121DD
:1027E000A120FFF7FFFD3A21A220FFF7FBFD932177
:1027F000A320FFF7F7FD0221A420FFF7F3FDF62148
:10280000A520FFF7EFFD1D21AA20FFF7EBFDAC216E
:10281000B020FFF7E7FD0021B220FFF7E3FD022122
:10282000B320FFF7DFFD1021B420FFF7DBFD2821E7
:10283000B520FFF7D7FD2D21B620FFF7D3FDD4211A
:10284000B720FFF7CFFD0021B820FFF7CBFD002117
:10285000B920FFF7C7FD4221BA20FFF7C3FD45218C
:10286000BB20FFF7BFFD5321BC20FFF7BBFD542168
:10287000BD20FFF7B7FD4221BF20FFF7B3FD452183
:10288000C020FFF7AFFD5321C120FFF7ABFD54215E
:10289000C220FFF7A7FDFF21C320FFF7A3FDFF2103
:1028A000C420FFF79FFDFF21C520FFF79BFDFF21FF
:1028B000C620FFF797FD8021D820FFF793FD602108
:1028C000E920FFF78FFD4E21EE20FFF78BFDA521BC
:1028D000EF20FFF787FD2D21F020FFF783FD232157
:1028E000F120FFF77FFD0D21F220FFF77BFD522144
:1028F000F520FFF777FDFEF7D3FA493800EB8000AB
:102900004006010EF920FFF76DFD0A21FA20FFF7BE
:1029100069FD0021F320FFF765FD0021F420FFF79A
:1029200061FD6221F620FFF75DFD0021F720FFF732
:1029300059FD0721ED20FFF755FD18480178A72024
:10294000FFF750FD164B4FF4C8720021032000F032
:10295000A5F91E21FC20FFF745FD0C21FD20FFF706
:1029600041FD3221FE20FFF73DFD01220A2100201A
:10297000FEF7D2FB0223282200211846FFF7B6F803
:102980000848016821F480610160FFF79DFEFFF7B0
:102990003FFDBDE81040FFF739BC000040010020BA
:1029A000612A00080004014010B51A48016821F4AA
:1029B00080610160092240210020FEF73BFD0922D1
:1029C0004FF480510120FEF735FD00224FF4806462
:1029D00021461046FEF72EFD002202210120FEF7BF
:1029E00029FD21460020FEF78BFD02210120FEF784
:1029F00087FD6400092221460020FEF71BFD2146C9
:102A00000020FEF77DFDFFF753FCBDE810400420D9
:102A1000FFF7D6BC000401402DE9F04106460F4601
:102A200015460D4CA078012813D12846FEF75CFA14
:102A300078B10020A0700021084BC822084600F0A1
:102A40002DF92A4639463046FFF7E6FB0120BDE85E
:102A5000F0810020FBE70000400100200D2200086B
:102A600070B500212620FFF7BDFC324B197881425A
:102A700001D2421A00E00A1A2E4C00250A3C082A0C
:102A800036DA400800EB5100C0B21870D978491C02
:102A9000C9B2D97014293FD9A0F10A01D32924D28F
:102AA0001430C1B22170A720FFF79CFC6069C8B147
:102AB00000F0F0F96169884204D200F0EBF9616935
:102AC000081A03E000F0E6F96169401A1A498842E1
:102AD00004D20420FFF7F0FD656106E000F0DAF9AA
:102AE000606102E000F0D6F960612561002070BDF0
:102AF0005978814201D2411A00E0091A322909DAD3
:102B00009978491CC9B29970042905D91870DD70EB
:102B10009D7001E058709D702069401C2061B0F5E7
:102B2000167F05D925610420FFF7C6FD002070BD82
:102B3000012070BD4A010020A068060010B500F019
:102B4000D5FB002207210220FEF7E0FB0021054B08
:102B50004FF47A72084600F0A1F8BDE81040024830
:102B6000FEF730B9E53200089018002070B50D4C22
:102B70004FF0FF3020600020FEF7B2FD60600220C1
:102B80002072002565721422002104F10A0000F071
:102B90001EFEA5772246BDE870401F21402000F0B0
:102BA000F1BB00008C18002010B500F021F8FEF7F2
:102BB000E6FDFFF7AFFD4FF4165000F08BF9BDE8CE
:102BC00010404FF4FA610520FEF758BF064A10681E
:102BD0000649B0FBF1F301FB130010601068401CC4
:102BE000106000F005B900003C0100200084D717F8
:102BF00000B585B06846FFF7EFF901984FF47A7198
:102C0000B0FBF1F14FF0E020491E41610721016165
:102C100005B000BD0620704710B51048016841F4AA
:102C2000807101600D4908310A680D4B1A400A6035
:102C300002680C4B1A400260026822F48022026093
:102C4000086820F47D000860091D00200860FFF777
:102C500019FC054805490068086010BD00380240AD
:102C60000CC0FF88FEFFFEEE8803000808ED00E0C0
:102C700010B5064B06E0044603EB0414401C24691F
:102C8000944202D08842F6D3002010BD28170020BD
:102C90000149002008607047281700202DE9F047FF
:102CA00006460F46144699464FF001081D4D2888E8
:102CB00069880144142902D30220BDE8F0874A46FE
:102CC0000020FFF7D5FF98B1484600F0AFF82888FC
:102CD00069884A4601440020FFF7CAFF401E4FF0B2
:102CE000030805EB00100671C0F8109086B112E0E1
:102CF00068880201288805EB0011401C05EB0010D4
:102D0000091D001D00F046FD2888411C2980E8E7C8
:102D100004B90124012700214171C7808460C1608A
:102D20004046CAE72817002010B50F4C0246002085
:102D3000218863881944FFF79BFF002812D021885F
:102D40006288114481420AD9091A0A0104EB001170
:102D5000401E04EB0010091D001D00F01BFD208823
:102D6000401E208010BD0000281700202DE9F041F2
:102D70001E4F3C1D13E0607880B1FDF749FE06460A
:102D8000E56800206070217889B1012911D00229FD
:102D90001BD003291ED03046FDF73EFE1034388884
:102DA00007EB0010001DA042E5D8BDE8F08101202E
:102DB00060706088411E618007D22846FFF7B4FF2B
:102DC000103C3046FDF728FEE8E73046FDF724FECC
:102DD000A847E3E73046FDF71FFEA8470028DDD1EE
:102DE0002846FFF7A1FF103CD8E700002817002075
:102DF00070B5FDF70DFE0C4B191D0024012508E0F0
:102E00008A68521C8A604E68B24201D38C604D7051
:102E100010311A8803EB0212121D8A42F0D8BDE865
:102E20007040FDF7F9BD0000281700207FB502466D
:102E3000174D288869880144FFF71AFF0446002CC3
:102E400025D02888201A01281BD9601E05EB001107
:102E5000091D1022684600F091FC2888211A0A01F9
:102E600005EB0011401C05EB0010091D001D00F0D2
:102E700091FC2888102205EB0010001D694600F027
:102E80007DFC2888401C28806888401E68807FBDA3
:102E90002817002001480068704700003C0100200E
:102EA00070B50A4C208880060BD5FDF7B1FD0546AC
:102EB000211D09880648C9B200F0DAFB2846FDF753
:102EC000ABFD208820F02000208070BD003801403C
:102ED000080F002010B586B0044601A8FFF77CF863
:102EE0002649086840F480400860086820F4804063
:102EF000086022490831086840F001000860091D97
:102F0000086840F4804008601D49086820F470108B
:102F10000860086840F420100860888820F4C060C9
:102F20008880886820F470108860886840F4701089
:102F30008860C86820F47010C860486A4862486AAF
:102F400040F4EE60486204980E49B0FBF4F008804B
:102F5000081D018842F20C0211430180018841F4EE
:102F600080710180018841F020010180032102234A
:102F700025220846FEF7BAFD06B010BD14380240FF
:102F8000000002400838014070B505460C4604E0D8
:102F900015F8010B00F008F820B1641EE4B2F7D276
:102FA000012070BD002070BD10B5002144F62062E4
:102FB000084B00E0491C1C88640601D49142F9D3F7
:102FC000914204D20349091D0880012010BD002050
:102FD00010BD0000003801400120704710B50024EA
:102FE00004E0204600F008F8641CE4B2FFF7F4FFA8
:102FF000A042F6D810BD0000044900EB800201EBAE
:1030000082014968002900D008477047A83A0008A3
:1030100070B504460E46802506E006EBC40205EBBB
:1030200004100821FFF730F8641EE4B2F5D270BD39
:1030300010B5002404E0204600F008F8641CE4B257
:10304000FFF7CAFFA042F6D810BD0000084A4FF0B3
:10305000FF3142F8301002EBC002002191800123C1
:103060009371D171802101EB0010082100F08AB921
:103070005801002070B5012408490120FFF7C8FF5E
:10308000074D08E0641EE4B204EB840055F82010FC
:1030900009B120468847002CF4D170BD58010020AA
:1030A000A83A000810B50C4681B205480068FDF743
:1030B000ABFF201A80B208B1002010BD012010BD66
:1030C000900300082DE9F0410746FEF73FFA054658
:1030D0006C69DFF86080C8F800704FF0006612E09D
:1030E000FEF740F92168884206D12046BDE8F0414C
:1030F000104A0421FEF75CBF08F104020C21201DD8
:10310000FEF748FF1034D6F89003A042E8D8094AE9
:103110001021103A2869FEF73DFFD6F89013286970
:10312000091AFEF71DFF034A1021103A2869FEF71D
:103130003FFFCAE77C18002070B5FEF707FA044687
:10314000FDF7AEFE0546FEF70DF90A4908604FF09F
:103150000060D0F890132069091AFEF701FF054AB4
:1031600010212069FEF724FF2846BDE87040FFF7D4
:10317000A9BF00006C180020F0B5002200230370E6
:103180000F4C012513E0530904EB830302F01F07E2
:10319000D3F8076005FA07F31E4207D121F8022B86
:1031A00003789B1CDBB20370642B03D8521CA388EA
:1031B0009342E8D8007808B10020F0BD0120F0BDAE
:1031C0002E0000202DE9F041134B9C88641E8442A0
:1031D00001D3C82902D90020BDE8F081440903EBDE
:1031E000840400F01F07D4F807600125BD402E427B
:1031F0000DD14FF000669B79D6F8906300FB036019
:10320000FEF7D6FE28B154F8070F284320600120AE
:10321000E2E70020E0E700002E00002070B54179D1
:10322000012901D01E2070BD134C01786170A11CD2
:10323000C2880B685A600B688268DA600B68D0F845
:103240000D209A60007B88710A68D268B2FBF0F3A7
:10325000B2FBF0F500FB152008B1012000E00020D2
:10326000184488800448801C00F008F80128DAD14E
:10327000F1202070012070BD2C00002070B50446A4
:10328000A079800701D0212070BD4FF00065D5F8EE
:103290009013D5F89403401A2168C968814201D976
:1032A000202070BD4FF480720021E01D00F08FFAE5
:1032B0002068C168D5F89003BDE87040FEF750BEA5
:1032C00006490870012805D005220021044B084654
:1032D000FFF7E4BC4FF47A72F7E7000036010020F4
:1032E000FD1200080020FFF7EBBF000010B5164AE2
:1032F0001F214020FEF7C8FE13484068FEF7F0F992
:10330000124CB8B1AFF21B03002132220846FFF77E
:10331000C5FC2078401CC0B22070032813D9AFF23E
:103320003300FFF701FDFDF7D3FFBDE8104001209A
:1033300000F00EB82078002805D000202070BDE8ED
:103340001040FFF797BE10BD8C18002035010020FB
:103350001CB5044609A106C9CDE90012FFF706FC19
:10336000FFF766FEFFF73AFE022C02D16846FFF730
:10337000EFF80120FFF7A4FF1CBD00000100F801D9
:10338000530000002DE9F04105460C46174620E0A9
:10339000B5F5004F03D247F69C70844202D9002055
:1033A000BDE8F08105F03F00C0F14006A64200D321
:1033B0002646F3B2A9B23A46A020FEF713FB50B15D
:1033C0003544A41B37446FF07041A020FEF7C5FAC6
:1033D00008B1002CDCD134B1002211461046FDF7B3
:1033E00095FF0020DCE70120DAE72DE9F0410546F2
:1033F0000C4617461FE0B5F5004F03D247F69C7008
:10340000844202D90020BDE8F08105F03F00C0F100
:103410004006A64200D32646F3B2A9B23A46A020FF
:10342000FEF706FB48B13544A41B6FF07041A020A5
:10343000FEF793FA08B1002CDDD134B10022114619
:103440001046FDF763FF0020DDE70120DBE7000009
:1034500070B506460C46002C40D0204600F05BF9C3
:1034600006283BD906221E49204600F09AF8A060A3
:10347000204600F08EF8012830D0A0686168801DD9
:10348000B0FBF1F201FB120021680D5C012D1DD98A
:103490000C35FA2D1AD8204600F03DF9A8421DD36C
:1034A000A168A81F084461680623B0FBF1F201FB84
:1034B00012010C4A204600F051F838B12A46314634
:1034C000204600F0A2F848B1284670BDA0686168A7
:1034D000801DB0FBF1F201FB1200A060002070BD66
:1034E000EC390008F239000870B505462846FFF7A8
:1034F000AFFF04465CB1A81DFDF739FC38B9AC7EBE
:103500001D3428190622034900F038F9A41D20466D
:1035100070BD0000F239000870B5044640F2E6358F
:1035200004E0FEF7C1FA284600F004F8641E601CAF
:10353000F7D170BD03E00A21491E0029FCD1401ECD
:10354000411CF8D17047002806D00160426000217C
:10355000C16081600120704700207047F0B50768A6
:10356000002F02D00AB100240FE00020F0BD466811
:103570000D19B5FBF6FC06FB1C5512F8016B7D5DC1
:10358000B54201D00020F0BD641C9C42EFD3012065
:10359000F0BDD0E90210814201D101207047002026
:1035A0007047F0B5002806D029B122B18468002305
:1035B000C668456812E00020F0BD076811F803C036
:1035C0003F5D674504D15B1C934202D15B1E07E05F
:1035D0000023641CB4FBF5F705FB1744A642ECD1AD
:1035E0002819C01AB0FBF5F105FB1100F0BDC16848
:1035F0004268491CB1FBF2F302FB1311806881425F
:1036000001D101207047002070472DE9F0410446A8
:103610000F461546002C0CD02046FFF7BAFF0128B4
:1036200009D0204600F077F8A84206D20020BDE875
:10363000F0810020FBE70020F9E7D4E901100E1A21
:10364000AE4200D32E46216832460144384600F08F
:1036500095F8AA1BB819216800F090F8A068616875
:103660002844B0FBF1F201FB1200A0600120DEE76C
:1036700070B504460D46002C11D02046FFF7B7FF69
:1036800001280ED0E16820684554E0686168401C5C
:10369000B0FBF1F201FB1200E060012070BD0020E0
:1036A00070BD002070BD2DE9F04104460F4615465F
:1036B000002C07D0204600F022F8A84204D20020B7
:1036C000BDE8F0810020FBE76168E0680E1AAE42B9
:1036D00000D32E46216832460844394600F04EF8A1
:1036E000AA1BB919206800F049F8E068616828440D
:1036F000B0FBF1F201FB1200E0600120E0E7D0E94D
:103700000212914202D9881A401E7047406808444C
:10371000801A401E7047D0E90221914203D24068CE
:103720000844801A7047881A704700000622014931
:10373000FFF7B9BFEC390008FDF79CFCFDF79CFBD7
:10374000FFF7A6FAFFF730FAFDF756FDFFF792FCF8
:10375000FEF7FEF9FFF70AFBFAE710B588420BD037
:1037600052B110F8013B11F8014BA34201D00120E6
:1037700010BD521E002AF4D1002010BD884208D08E
:10378000002A06D011F8013B00F8013B521E002A26
:10379000F8D1704788420AD2002A07D011F8013BBD
:1037A00000F8013BA2F10102002AF7D17047FDD9D0
:1037B00000EB020301EB0200002AF7D010F8011D14
:1037C00003F8011DA2F10102002AF7D17047002A77
:1037D00004D000F8011B521E002AFAD170470000E5
:1037E00006220149FFF75FBFF23900080000C1C09F
:1037F00081C1400101C3C003800241C201C6C006AD
:10380000800741C70005C1C581C4400401CCC00C7C
:10381000800D41CD000FC1CF81CE400E000AC1CA3C
:1038200081CB400B01C9C009800841C801D8C0182C
:10383000801941D9001BC1DB81DA401A001EC1DEAC
:1038400081DF401F01DDC01D801C41DC0014C1D49C
:1038500081D5401501D7C017801641D601D2C012BC
:10386000801341D30011C1D181D0401001F0C0308C
:10387000803141F10033C1F381F240320036C1F6AC
:1038800081F7403701F5C035803441F4003CC1FC7C
:1038900081FD403D01FFC03F803E41FE01FAC03A3C
:1038A000803B41FB0039C1F981F840380028C1E86C
:1038B00081E9402901EBC02B802A41EA01EEC02EAC
:1038C000802F41EF002DC1ED81EC402C01E4C0249C
:1038D000802541E50027C1E781E640260022C1E2BC
:1038E00081E3402301E1C021802041E001A0C060CC
:1038F000806141A10063C1A381A240620066C1A6AC
:1039000081A7406701A5C065806441A4006CC1AC7B
:1039100081AD406D01AFC06F806E41AE01AAC06A3B
:10392000806B41AB0069C1A981A840680078C1B82B
:1039300081B9407901BBC07B807A41BA01BEC07EAB
:10394000807F41BF007DC1BD81BC407C01B4C0749B
:10395000807541B50077C1B781B640760072C1B2BB
:1039600081B3407301B1C071807041B00050C1900B
:10397000819140510193C053805241920196C056AB
:10398000805741970055C19581944054019CC05C7B
:10399000805D419D005FC19F819E405E005AC19A3B
:1039A000819B405B0199C059805841980188C0486B
:1039B00080494189004BC18B818A404A004EC18EAB
:1039C000818F404F018DC04D804C418C0044C1849B
:1039D000818540450187C047804641860182C042BB
:1039E000804341830041C18181804040F1F1F1F287
:1039F000F1F1F2F2F2F1F2F2C0000000000000007A
:103A000000000000A9150008C1000000000000002F
:103A10000000000069160008C90000000000000056
:103A20007B26000800000000F400000000000000F9
:103A30005126000831160008F500000000000000C3
:103A40000926000800000000F80000000000000047
:103A50005125000859150008F0020008000400086C
:103A6000300400083C0400080050000840500008E2
:103A7000F002000800040008300400083C040008BC
:103A80000060000840600008F0020008000800081C
:103A9000300800083C08000800680008406800087A
:103AA00005000500050005003D2B00080000000092
:103AB00000000000F8390008152C00080403020774
:103AC0000202010254F139CDE3A3A432EC3A00081A
:103AD000000000206801000030090008103B0008C9
:103AE00068010020A81D00008C09000841800E011B
:103AF000020304030406080C101820302915B5062B
:103B000007080915EF016C1802FF20F10227A00039
:04000005080008F5F2
:00000001FF
