:020000040800F2
:10000000600600207D0100088101000883010008CE
:100010008501000887010008890100080000000030
:100020000000000000000000000000008B0100083C
:100030008D010008000000008F01000891010008F8
:100040009301000893010008930100089301000840
:100050009301000893010008930100089301000830
:100060009301000893010008930100089301000820
:100070009301000893010008930100089301000810
:100080009301000893010008930100089301000800
:1000900093010008930100089301000893010008F0
:1000A00093010008930100089301000893010008E0
:1000B00093010008930100089301000893010008D0
:1000C00093010008930100089301000893010008C0
:1000D00093010008930100089301000893010008B0
:1000E00093010008930100089301000893010008A0
:1000F0009301000800F002F800F02CF80AA090E844
:10010000000C82448344AAF10107DA4501D100F0D2
:1001100021F8AFF2090EBAE80F0013F0010F18BF73
:10012000FB1A43F00103184744010000540100008A
:100130000023002400250026103A28BF78C1FBD8F0
:10014000520728BF30C148BF0B6070471FB51FBDA5
:1001500010B510BD00F031F81146FFF7F7FF00F0C1
:100160006FF800F04FF803B4FFF7F2FF03BC00F0A4
:1001700057F8000080F308887047000008480047DF
:10018000FEE7FEE7FEE7FEE7FEE7FEE7FEE7FEE747
:10019000FEE7FEE703480449044A054B70470000A8
:1001A000F5000008600000206006002060020020CA
:1001B00060020020704770477047754600F02CF8C9
:1001C000AE4605006946534620F00700854618B044
:1001D00020B5FFF7DFFFBDE820404FF000064FF0ED
:1001E00000074FF000084FF0000B21F00701AC466C
:1001F000ACE8C009ACE8C009ACE8C009ACE8C0098B
:100200008D46704710B50446AFF300802046BDE828
:100210001040FFF7A8BF0000004870470000002012
:1002200001491820ABBEFEE726000200704770B5FA
:10023000044625462868FFF79DFF6868804770BD23
:1002400008480468084A2168914203D105490C31E5
:10025000096802E00349091D09680846FFF7E7FF3E
:1002600000BFFEE784030008558778AA7C020008D7
:0C027000000000206006000030010008C3
:04000005080000F5FA
:00000001FF
